S022000055534152545F55534152545F52533438355F4558414D504C45322E7372656343
S2144000002831402039084000370840003708400073
S214400010370840003708400037084000000000001E
S214400020000000000000000000000000370840000C
S214400030370840000000000037084000B50C40007C
S214400040370840003708400037084000370840006F
S214400050370840003708400037084000370840005F
S21440006037084000000000002505400039054000E4
S2144000704D054000C50C400037084000370840009A
S21440008061054000750540003708400037084000CD
S214400090370840003708400037084000370840001F
S2144000A0370840003708400037084000370840000F
S2144000B037084000370840003708400037084000FF
S2144000C037084000370840003708400037084000EF
S2144000D037084000370840003708400037084000DF
S2144000E037084000370840003708400037084000CF
S2144000F037084000370840003708400037084000BF
S21440010037084000370840003708400037084000AE
S214400110370840000000000000000000000000001B
S214400120370840003708400037084000370840008E
S214400130370840003708400037084000370840007E
S214400140370840003708400037084000370840006E
S214400150370840003708400037084000370840005E
S214400160370840003708400010B5054C237833B9AF
S214400170044B13B10448AFF300800123237010BD35
S2144001804C08402000000000782F40000C4B43B144
S2144001900C480D4910B5AFF300800C48036823B9EE
S2144001A010BD0A48036833B97047094B002BF7D097
S2144001B0BDE810401847064B002BF5D0184700BF47
S2144001C000000000782F400050084020782F400064
S2144001D00000000010B51048104B98473E21002004
S2144001E00F4B98470F4CA0470028FCD00E4B984723
S2144001F00E4A0F4B9A620F4CA0470028FCD00220B4
S2144002000D4B984700200D4B98470D4B98470D488F
S214400210024B984710BD00BF000E27070D0A40004E
S214400220250640007906400089064000013F182018
S21440023000060E409906400089054000C105400072
S2144002400109400000A3E1112DE9F04180B90C46B8
S2144002509046002A0FDD8F18084E094D306821461B
S2144002602B6898470134BC42F8D14046BDE8F0813F
S2144002704FF0FF38F9E78046F7E700BF24094020F3
S2144002801C0940200138022815D82DE9F0410E46B9
S21440029014469AB10D46DFF838800C4FD8F8000067
S2144002A015F8011B3B68984700280ADBA81B013C51
S2144002B0F4D1BDE8F0814FF0FF3070471046BDE8FE
S2144002C0F0814FF0FF30BDE8F08100BF20094020AC
S2144002D024094020F8B54FF40042744B5A60BFF3EF
S2144002E04F8FBFF36F8F724B0022C3F850225A696C
S2144002F042F400325A61BFF34F8FBFF36F8FD3F88B
S2144003008070C7F34E3607F007000430C7F3C907BE
S214400310B7FA87FE0EF01F0EBFF34F8F4FF0FF3435
S21440032004FA00FC06FA00F004FA0EF407FA0EFE91
S2144003301D463A46734640EA0301C5F86012013A44
S2144003402344B2F1FF3FF6D1013E6044B6F1FF3F91
S214400350EFD1BFF34F8F564B5A6942F480325A6101
S214400360BFF34F8FBFF36F8F524A53495160A1F589
S21440037080715160BFF34F8FBFF36F8FD3F89022D9
S21440038022F00102C3F89022D3F8942222F0010210
S214400390C3F89422BFF34F8FBFF36F8F0A20474CAA
S2144003A0A0470B20A0470C20A0471020A0471120B4
S2144003B0A047434B4FF480721A61C3F8A0201A63DB
S2144003C0A3F580634FF400625A61C3F8A0205A66D2
S2144003D0C3F890205A651A62C3F88420196F21F436
S2144003E000611967596F21F400615967C3F8C0204E
S2144003F0C3F8D420C3F8B0204FF400121A66C3F8EE
S21440040090205A655A62C3F88020196F21F4001173
S2144004101967596F21F4001159675A60294AD2F872
S214400420143143F01003C2F81431274B10221A66D9
S214400430C3F890205A655A62C3F88020196F11435A
S2144004401967596F114359675A6001221A66C3F8F3
S21440045090205A655A62C3F88020196F21F0010136
S2144004601967596F114359675A6002221A66C3F8D2
S21440047090205A655A62C3F88020196F21F0020115
S2144004801967596F114359675A6008221A66C3F8AC
S21440049090205A655A62C3F88020196F21F00801EF
S2144004A01967596F114359675A60F8BD50180E4086
S2144004B000ED00E0000C0E400C08005AA906400073
S2144004C000120E400080084000100E40C06C70477E
S2144004D0806C70472DE9F041044688460E4B98479D
S2144004E0054620460D4B9847054013D00C4C04F16A
S2144004F0600603E0B4420DD010345DB1206840453C
S214400500F8D161682942F5D0E3689847636825EAE0
S2144005100305EFE7BDE8F081CD044000D10440007C
S2144005206808402008B50A210148024B984708BD94
S214400530000E0E40D504400008B50B210148024B82
S214400540984708BD00100E40D504400008B50C2161
S2144005500148024B984708BD00120E40D5044000A3
S21440056008B510210148024B984708BD00140E40BC
S214400570D504400008B511210148024B984708BDF4
S21440058000160E40D5044000032811D0042812D08F
S21440059002280CBF4FF480710021084A136B23F4E5
S2144005A040730B431363936E13F0080FFBD07047F2
S2144005B04FF44071F1E74FF40071EEE700060E404D
S2144005C0174A136B23F0700318431063936E13F0AF
S2144005D0080F0AD14FF4805311498A6E12F0080F63
S2144005E003D1013BF9D1012070470D4A136B23F02C
S2144005F0030343F002031363936E13F0080F0AD10C
S2144006004FF4805306498A6E12F0080F05D1013B1D
S214400610F9D101207047002070470020704700BF86
S21440062000060E40A0B90E48036A090289B20D4A78
S2144006301A400D4B1343194301620246936E13F062
S214400640010FFBD0064A116A084B0B4313627047F2
S21440065003490B6A064A1A40064B13430B6270471F
S21440066000060E40FCFFC8FF0100370000003701BF
S214400670FCFFC8FE02003701024B986E00F4803043
S214400680704700BF00060E404FF00052014B9A6282
S214400690704700BF00060E40024B986E00F0020006
S2144006A0704700BF00060E4000F07F00054BC3F8C1
S2144006B00C01D3F80C2142F01022C3F80C21002084
S2144006C0704700BF00060E40436913F0020F02D089
S2144006D0C1610020704701207047436913F0010F45
S2144006E003D083690B70002070470120704710B418
S2144006F00B01934214D9C9004B0803EBC202B2FB6C
S214400700F1F2D3085C1E4FF6FE718C4201D90120EF
S21440071017E0416841F4002141600CE0012010E000
S214400720590801EBC202B2FBF3F2D3085C1E4FF647
S214400730FE718C42F2D8120402F4E0221A4302629E
S21440074000205DF8044B7047084BC0F8E4300023A7
S21440075043604362836288230360242303604FF42C
S214400760807303604FF40023036070470041535585
S21440077070B505460C4616460F4B984700220F4B61
S2144007801A60A4B13246216828460D4B9847024667
S21440079078B96368A1680B4321690B43E1680B4352
S2144007A006490B6069680B436B60104670BD0122BA
S2144007B0FBE70122F9E700BF49074000D808402080
S2144007C0EF06400010B50446064B984740B902462F
S2144007D0636823F00F0343F001036360104610BDC7
S2144007E00122FBE7710740004023036070478162A7
S2144007F07047102303607047C16070474069704778
S214400800406900F001007047436913F0020F04D0BE
S214400810C1F30801C1610020704701207047436959
S21440082013F0010F05D08369C3F308030B60002063
S214400830704701207047FEE700B583B0254B264A37
S2144008409A4210D0254B234A9A420CD2013B9B1A1F
S21440085023F00303043313441F4951F8040B42F8B2
S214400860040B9A42F9D11E4B1E4A9A420AD2013BC9
S2144008709B1A23F0030304331344002142F8041B5D
S2144008809342FBD1184A194B23F07F039360EFF352
S2144008901083B3FA83F35B09019372B6BFF35F8F9D
S2144008A00022134B1A700199124A136843F47003DE
S2144008B01360BFF34F8FBFF36F8F29B101220C4BEC
S2144008C01A70BFF35F8F62B60B4B98470B4B984737
S2144008D0FEE700BF00004020782F40004C08402034
S2144008E0241140204C08402000ED00E0000040006D
S2144008F00000402088ED00E0BD0F4000490D40005C
S2144009003B4B1B6B03F00303012B1DD083B1022B23
S21440091036D0374B1B6B03F07003702B5FD0344BD5
S2144009201A6B3449C2F302120B68D3400B6070470F
S214400930314B5B6913F0800F14BF4FF400424FF405
S214400940FA422C4B1A60E4E7294B1B6A13F0807F6F
S21440095003D02A4A274B1A60DBE7294A254B1A6000
S214400960234B1B6A03F07003102B05D0202BD0D1ED
S214400970224A204B1A60CCE7224A1E4B1A60C8E730
S2144009801B4B1B6A13F0807F16D01C4A194B1A600B
S214400990174B1B6B03F00303022BBAD1144A916A20
S2144009A0926A1448C1F30A41036801FB0333D2B28A
S2144009B0B3FBF2F30360ACE7114A0E4B1A600C4BE4
S2144009C01B6A03F07003102B05D0202BE0D10B4A96
S2144009D0084B1A60DCE70B4A064B1A60D8E7054A14
S2144009E013680949A1FB03135B081360704700BFF7
S2144009F000060E400400402010180E40001BB700B2
S214400A0000093D0000127A00ABAAAAAA164B9842EB
S214400A1013D9164B984215D9154B984216D9154BF3
S214400A20984217D9144B984218D9144B984294BF01
S214400A30134A144A144B1A6070474FF08062124BA8
S214400A401A607047114A104B1A607047104A0E4B96
S214400A501A6070470F4A0C4B1A6070474FF00422DA
S214400A60094B1A60704700BFBFF35E017FE7BD02C7
S214400A703FDB1C04FFCE7B05BFC2DA067FB63908D3
S214400A800005000400060004000C0E4000010004AF
S214400A9000020004000300040A4B1B6853B1094BD4
S214400AA01B681A180849914208DB1046054A106030
S214400AB018467047054A034B1A60F0E74FF0FF3080
S214400AC0704700BFDC084020FCFF4520283340200C
S214400AD04FF0FF3070474FF400534B600020704794
S214400AE0012070470020704782B00190044B186880
S214400AF019460B68019A1B1A9342FAD302B0704704
S214400B0028094020F0B583B005460C4600230193E3
S214400B102A4B984213D02A4B984218D0294B9842D9
S214400B201DD0294B9D4222D0284B9D4227D0284B92
S214400B309D422ED0274B9D4235D003B0F0BD1F4678
S214400B40254E21463846B0470028FAD1E9E71F46E9
S214400B50214E21463846B0470028FAD1E4E71F46E2
S214400B601D4E21463846B0470028FAD1DFE71F46DB
S214400B70194E21463846B0470028FAD1DAE71E46D5
S214400B80164D01A93046A8470028FAD1019B23708C
S214400B90D3E71E46114D01A93046A8470028FAD192
S214400BA0019B2370C9E71E460C4D01A93046A84755
S214400BB00028FAD1019B2370BFE700BF00080E4013
S214400BC0000A0E40001A0E40001C0E400040024034
S214400BD00080024000C00240DB0640001F08400084
S214400BE070B50C462A4B984213D02A4B984219D0DF
S214400BF0294B98421FD0294B984225D0284B9842E3
S214400C002BD0284B984231D0274B984237D00020E3
S214400C1070BD1E46254D21463046A8470028FAD1CD
S214400C20012070BD1E46214D21463046A84700286B
S214400C30FAD1012070BD1E461C4D21463046A847BD
S214400C400028FAD1012070BD1E46184D2146304678
S214400C50A8470028FAD1012070BD1E46144D2146F3
S214400C603046A8470028FAD1012070BD1E46104DD8
S214400C7021463046A8470028FAD1012070BD1E46BE
S214400C800B4D21463046A8470028FAD1012070BDBA
S214400C9000080E40000A0E40001A0E40001C0E408F
S214400CA0004002400080024000C00240C9064000AA
S214400CB009084000024A136801331360704700BFBA
S214400CC02809402000B583B01848194B984740F291
S214400CD00223184207D1174B1B78DBB2022B07D0F2
S214400CE003B05DF804FB19461048134B9847F2E7EB
S214400CF00DF107010D48114B98470028F0D1104AD6
S214400D001368591C11609DF807201A700D4A136825
S214400D1001331360B3F5FA6FE2D30322054B1A7022
S214400D2001210248044B9847DAE700BF00800240A2
S214400D30FD074000E0084020F90740001F0840003B
S214400D4008004020E40840202DE9F04FA1B04F4B6A
S214400D5098474F4B98470E20DFF8ACA1D0474D4CF4
S214400D604D4B1C604D4A4E4B1A604E4A4E4B1A60D5
S214400D704FF4E1330193C02302934FF4006303938F
S214400D800027049705970E20D047DFF880B15A46D3
S214400D9001A92046454B98472046DFF87491C8473E
S214400DA02046DFF87081C047414E33683946986820
S214400DB0404DA847336839465868A8473E483F4B99
S214400DC0984701AD3E4E0FCE0FC596E8030085E826
S214400DD003000D20D0475A4601A92046394B984774
S214400DE004212046384B98474FF0FF312046374B7A
S214400DF098472046C8472046C0474FF40052344BD9
S214400E001A60F03B334A5A60E021334A82F8231096
S214400E109F6007221A604FF4FA6239462F48304BDB
S214400E2098472046C84732202E4DA8472046C04700
S214400E303220A8472C4B1F6826462C4D1C4604E003
S214400E402368DB1BB3F57A7F03D83046A8470028D3
S214400E50F6D03220234B98472548184B9847254EC6
S214400E60164C254D3046A04707A8A84707A8234B51
S214400E70984705288CBF07A82148A0474FF47A70AA
S214400E80184B984702221F4B1A70EBE7D5014000DB
S214400E90D50240000080024024094020E10B40007B
S214400EA020094020050B40001C09402071074000E7
S214400EB00C00402099114000802E40005511400003
S214400EC0682E4000C5074000EF074000F907400085
S214400ED000E100E0DF93040000ED00E02C09402034
S214400EE01D104000E90A4000280940200108400043
S214400EF0D42E40001C2F4000AD0F40004113400050
S214400F00442F4000E0084020A906400080D1F00869
S214400F10E9074000F3074000F8B5836B446807468E
S214400F200E466BB3636EDD0702D4A38998052AD5B7
S214400F30354607E023685A1C226018780A2810D0E5
S214400F4005F8010B6368013B002B6360F2DA21462B
S214400F50384600F007F90A2803D0411CF0D1B542C4
S214400F6015D000232B70636EDA0702D4A3899B0545
S214400F7001D53046F8BDA06D00F04EF83046F8BDBD
S214400F8000F066FBCEE7A06D00F044F8D0E7636E55
S214400F9013F0010608D1A38913F40075E9D1A06DBA
S214400FA000F03AF82E46E4E70026E2E7024B014618
S214400FB01868FFF7B1BF00BF0C00402070B50F4E59
S214400FC00F4D761BB61018BF002405D0013455F8D7
S214400FD0043B9847A642F9D10A4E0B4D761B01F0CA
S214400FE0B9FFB61018BF002406D0013455F8043BAC
S214400FF09847A642F9D170BD70BD00BF602F400033
S214401000602F4000682F4000602F4000704700BFB0
S214401010704700BF704700BF704700BF70B4860778
S21440102046D0541E002A41D0CAB2034602E014F10C
S214401030FF343BD303F8012B9D07F8D1032C2ED960
S214401040CDB245EA05250F2C45EA054519D903F1E9
S21440105010022646103E0F2E42F8105C42F80C5CFA
S21440106042F8085C42F8045C02F11002F2D8A4F19F
S214401070100222F00F0204F00F041032032C134427
S2144010800DD91E462246043A032A46F8045BFAD88F
S214401090221F22F003020432134404F003042CB14E
S2144010A0C9B21C4403F8011B9C42FBD170BC70477C
S2144010B014460346C2E700BFF0B5054689B0084669
S2144010C00C4600F03DF9AB6B214F04940126441CBE
S2144010D004A9022203940590AC68069707960191EE
S2144010E0029253B3636E13F0010FB4F90C309AB208
S2144010F001D1900525D5910406D4626E43F4005381
S21440110022F40052A3816266284601AA214600F0D6
S21440111027FC636E00280CBF0A254FF0FF35DA0720
S21440112002D4A3899B0502D5284609B0F0BDA06D20
S214401130FFF772FF284609B0F0BD284600F088FA4F
S214401140D0E7A06DFFF766FFB4F90C309AB2D2E74D
S214401150502F4000024B01461868FFF7ADBF00BF56
S2144011600C00402038B50C46054608B1836B63B189
S2144011702846214601F0F6FB50B994E80C00013BA6
S214401180511C84E80A00107838BD00F061FAEFE799
S2144011904FF0FF3038BD00BF00290CBF02220022AE
S2144011A04FF4806300F000B82DE9F043614C2568A9
S2144011B083B004460F4690461E4615B1AB6B002BD7
S2144011C064D0B8F1020F06D0B8F1010F00F29F804C
S2144011D0002EC0F29C80636ED80734D52146284640
S2144011E000F0CCF9216B41B104F14003994202D0A2
S2144011F0284600F0CFFA00232363B4F90C300022CF
S214401200A26162601A063AD423F44A6323F00303C9
S214401210B8F1020FA3811DD001AB6A46214628468D
S21440122000F066FDA3891843A081002E32D1009EAF
S214401230304600F0D5FD074600286BD0A38943F022
S2144012408003A38128E0A3899905C7D4A06DFFF742
S214401250E1FEC3E70025616E002604F1430243F039
S21440126002030120A660CE07A3812260226160614E
S21440127001D498053ED5284603B0BDE8F0832169E1
S214401280284600F087FAB4F90C30BDE7284600F04F
S214401290DFF996E7002FCBD0AB6B002B33D0009B0B
S2144012A0B4F90C2027609E421CBF42F40062A28123
S2144012B0B8F1010F04BF42F00102A28192B212F0CF
S2144012C00803276166610ED0D1071AD5656E76424F
S2144012D0002315F00105A661A36009D00025284625
S2144012E003B0BDE8F083A360656E15F00105F5D147
S2144012F09305C0D4A06DFFF78FFE284603B0BDE827
S214401300F083A660F0E7284600F0A2F9C7E74FF062
S214401310FF35B0E7DDF80090B14504D0484600F010
S2144013205FFD074620B9B4F90C304FF0FF3592E721
S2144013304E4683E70C0040200000000000000000FE
S21440134090F800F06DE9024520F007016FF0000CC0
S21440135010F0070491F820F040F049804FF0000468
S2144013606FF00700D1E9002391F840F000F1080043
S21440137082FA4CF2A4FA8CF283FA4CF3A2FA8CF37B
S2144013804BBBD1E9022382FA4CF200F10800A4FAE2
S2144013908CF283FA4CF3A2FA8CF3E3B9D1E9042336
S2144013A082FA4CF200F10800A4FA8CF283FA4CF36D
S2144013B0A2FA8CF37BB9D1E9062301F1200182FA27
S2144013C04CF200F10800A4FA8CF283FA4CF3A2FA2D
S2144013D08CF3002BC6D0002A04BF04301A4612BA3B
S2144013E0B2FA82F2FDE8024500EBD2007047D1E93E
S2144013F0002304F00305C4F100004FEAC50514F0CD
S214401400040F91F840F00CFA05F562EA05021CBF9D
S21440141063EA050362464FF00004A9E7024B13B1A6
S214401420024800F005B8704700000000C1164000B2
S214401430002301461A46184601F0EEBBB1F90C30BF
S2144014409AB22DE9F0410D46110780463AD46A68B3
S21440145043F40063002AAB816FDDAC6A002C49D0B0
S21440146000229BB2D8F80060C8F8002013F48052DF
S21440147067D02A6D5F0705D569682B6B521A0BB18A
S214401480EB6BD21A0023E9694046A047441C3CD087
S214401490B5F90C302A692A6023F400630022AB8138
S2144014A0DB046A6047D4296BC8F8006011B305F1C5
S2144014B04003994202D0404600F06CF90020286371
S2144014C0BDE8F0812E69AEB12C682E6091070CBF46
S2144014D06B690023A41BAB600AE0234632466F6A62
S2144014E0E9694046B8470028A4EB0004064404DDFA
S2144014F0002CF2DC0020BDE8F081AB8943F04003CD
S214401500AB814FF0FF30BDE8F081D8F800401D2C8D
S214401510F3D8194BE340DB4313F00103EDD1B5F9A3
S2144015200C206B6022F400632969AB81DA042960E1
S214401530B9D5002CB7D12865B5E7EA6B002A8CDC14
S214401540D8E70123E9694046A047431C024602D03B
S214401550AB89AC6A8EE7D8F80030002BF8D01D2B4C
S21440156001D0162B02D1C8F80060C3E7AB8943F020
S2144015704003AB81BDE8F0810100402038B50D4600
S214401580044608B1836BBBB1B5F90C0088B16B6EED
S214401590DB0701D4810517D520462946FFF74EFFC5
S2144015A06B6EDA07044602D4AB899B0507D5204606
S2144015B038BD0446204638BD00F04AF8E4E7A86D3A
S2144015C0FFF72AFD204638BDA86DFFF723FDE3E769
S2144015D020B1054B01461868FFF7D0BF034B0449BE
S2144015E0186800F05BBB00BF0C0040204C2F40004A
S2144015F07D154000014900F051BB00BF012D400061
S21440160010B5002304468181C28103604360836035
S2144016104366036143618361194608225C30FFF7E5
S214401620FDFC07480749084A084B2062E4616162AE
S214401630A262E36204F15800BDE81040FFF7E6BC42
S2144016409D2A4000C12A4000FD2A40001D2B400034
S21440165010B504461248FFF7DDFCA26BD2B904F57C
S2144016603B731048C4F8E8320321C4F8E022E06334
S214401670C4F8E41260680421FFF7C2FF0122092182
S214401680A068FFF7BDFF02221221E068FFF7B8FF0F
S2144016900123A3630248BDE81040FFF7BDBC00BF6E
S2144016A008114020F51540000148FFF7B3BC00BFC5
S2144016B01C1140200148FFF7AFBC00BF1C11402062
S2144016C038B50A4C0A4D641BA4100AD004F1804376
S2144016D0013B05EB8305013C55F804399847002C3F
S2144016E0F9D1BDE8384001F03FBC00BF782F40003C
S2144016F0742F4000F8B5244F0C46064600F076FF9F
S214401700BB685D68C4F57E610F3125F0030529444A
S21440171021F47F6121F00F01A1F58054B4F5805F7C
S21440172007DB0021304601F0A7F9BB682B449842FE
S21440173004D0304600F060FF0020F8BD61423046DD
S21440174001F09AF901300DD0104BBA6819682D1B7C
S21440175045F001053046091B5560196000F04CFF06
S2144017600120F8BD0021304601F086F9BA68831A98
S2144017700F2BDEDD064C0549246843F00103001BB1
S21440178053600860D5E700BF3C044020E80840208E
S21440179044084020002944D02DE9F0410D468046BB
S2144017A000F024FF55F8047C694927F00103A5F1B1
S2144017B00804E2188E685068B24220F003005ED0FB
S2144017C0FE0750600BD455F8087CE41B01F1080E68
S2144017D0A56875453B446DD0E768EF60BD60151859
S2144017E06D68ED073ED543F001026260E350B3F505
S2144017F0007F17D2DB08581C9A104D6851F830709D
S214401800A7600123934001EBC0022B43083AE260F5
S2144018104B6041F83040FC604046BDE8F04100F087
S214401820EBBE70475A0A042A52D89A0902F1390781
S214401830FF0002F13805C819CA59083890424FD0FF
S214401840516821F003018B4232D292689042F7D120
S214401850C368A060E3609C60C4604046BDE8F04159
S21440186000F0CABE95683B4FBD42034440D0D068A6
S214401870E86043F0010285606260E350B7E7FF0727
S214401880034407D455F8082CA41A1344A068E26809
S214401890C2609060304A126843F001009342606034
S2144018A08C60B9D32D4B40461968FFF723FFB3E74A
S2144018B01046CDE711184968C90744D49168D268E4
S2144018C0CA60034443F0010091606060E350A3E7C0
S2144018D0142A16D802F15C07FF0002F15B05AAE75E
S2144018E0AA1001234D6893402B434B600346B0E754
S2144018F043F001024C610C61E560A5606260E35014
S2144019008AE7542A06D81A0B02F16F07FF0002F145
S2144019106E0590E7B2F5AA7F06D8DA0B02F1780793
S214401920FF0002F1770586E740F25450824206D81F
S2144019309A0C02F17D07FF0002F17C057BE74FF42D
S2144019407E777E2577E743F001016160136063E7A9
S2144019503C044020440440204808402018094020C9
S2144019609368002B73D02DE9F04F8B8983B00C46DB
S21440197019070090164626D5226922B313F00200B6
S21440198035682CD04FF00009B04FC846B246B8452F
S21440199043464A4628BF3B460098B8F1000F50D011
S2144019A0E169666AB047002858DDDAF808301B1A45
S2144019B08144A8EB0008CAF80830002BE7D1002085
S2144019C003B0BDE8F08F2146009801F0C1F800282A
S2144019D040F03381A389356813F00200D2D113F06A
S2144019E0010945D14F46019637B39A05D4F8088089
S2144019F040F183804745C346C0F0AB8013F4906FF8
S214401A0040F0AC802068BA465A46494600F08AFD07
S214401A10A2682368A2EB08025B44A2602360019A96
S214401A209368A3EB0A03D144A7EB0A079360002B05
S214401A30C5D0A389002FD8D1D5F800906F68083557
S214401A40D2E7D5F80090D5F8048008359FE7002007
S214401A50704721460098FFF791FD70B3B4F90C30FB
S214401A6043F040034FF0FF30A38103B0BDE8F08F52
S214401A70814633464E46A8469A464D464EB380B3B8
S214401A80206823696269B145CB4628BFB346984271
S214401A905F4604D9A36813449B4500F3A68093454C
S214401AA04BDB1346676AE16900982A46B847071E2B
S214401AB0D4DDB9EB0709CCD00120DAF80830DB1BBF
S214401AC03D44F61BCAF80830002B3FF478AF002E92
S214401AD0D5D108F1080313E9600098460833002E74
S214401AE0F9D032460A21284600F032FC002800F0A1
S214401AF0A1800130A0EB0509C2E72068236998421F
S214401B0002D863699F425DD2B84528BFB846424670
S214401B10494600F007FDA3682268A3EB0803424449
S214401B20A36022600BB1C24679E721460098FFF7D2
S214401B3025FD002892D1C24671E75A46294600F054
S214401B40F1FCA2682368A2EB0B025B44A260236010
S214401B50AFE72068B846BA46BB4655E76269206894
S214401B60216902EB4208A0EB010A08EBD8780AF19B
S214401B7001004FEA680838444045424684BF8046E4
S214401B8042465B0544D51146009800F031F983463D
S214401B90002855D05246216900F02AFCA38923F438
S214401BA0906343F08003A3810BEB0A00A8EB0A0383
S214401BB0C4F810B0C4F814802060A360B846BA4693
S214401BC0BB4621E76FF00041B94228BF39464A4636
S214401BD091FBF3F10098666A03FB01F3E169B047B5
S214401BE0B0F1000A3FF71BAF38E71A462946019383
S214401BF000F098FC2268019B00981A442260214617
S214401C00FFF7BCFC019B00287FF428AF1F4650E737
S214401C10009800F0F7FC83460028C5D1009D216956
S214401C202846FFF7B7FDB4F90C300C2223F08003AA
S214401C302A6015E706F1010922E74FF0FF30BFE6BC
S214401C40009A0C231360B4F90C3009E700FCFF7FC0
S214401C502DE9F04110F538771BD0884600267D6880
S214401C60BC68013D0FD4A389012B05F1FF3506D989
S214401C70B4F90E300133204601D0C04706436B1CF2
S214401C8004F16804EFD13F68002FE8D13046BDE844
S214401C90F0813E463046BDE8F08100BF2DE9F8436E
S214401CA010F538771FD0884606464FF000097D6805
S214401CB0BC68013D11D4A389012B05F1FF3508D935
S214401CC0B4F90E3001332146304602D0C04749EAC7
S214401CD000096B1C04F16804EDD13F68002FE6D183
S214401CE04846BDE8F883B9464846BDE8F88300BF95
S214401CF070B50C46B1F90E10002990B015461E4638
S214401D0014DB01AA01F05EF800280FDB029A02F409
S214401D107042A2F50052B2FA82F252094FF4806342
S214401D204FF4006032602B6010B070BDA289002373
S214401D3012F08000336004D0402218462A6010B06B
S214401D4070BD4FF480632B6010B070BD8A899207D7
S214401D500B4606D501F1430201211A601A6159610A
S214401D607047F0B583B001AB6A460C460646FFF7AF
S214401D70BFFF00990546304600F03AF8B4F90C30FB
S214401D80D8B1019A154F0099F76343F08003A381B9
S214401D902060206161611AB92B43A38103B0F0BD76
S214401DA03046B4F90E1001F021F8A0B1A38923F013
S214401DB0030343F001031BB2EEE79A05EED423F08B
S214401DC0030304F1430243F002030121A38122608E
S214401DD022616161E2E7B4F90C30DDE7F5154000B9
S214401DE0024B0146186800F003B800BF0C004020C4
S214401DF02DE9F04F01F10B06162E83B0054640F252
S214401E009E8036F0070600F1BD80B14200F2BA80EF
S214401E1000F0ECFBB6F5FC7FC0F09382730A00F04E
S214401E20B880042B00F27981B30903F1390003F13D
S214401E30380EC300BF4F3B44A3F108015C68A14283
S214401E4006D10CE0002A80F2AA80E468A14206D0BF
S214401E50636823F003039A1B0F2AF3DD70463C6940
S214401E60DFF8E4E2744500F0AB81636823F00303D7
S214401E709A1B0F2A00F39081002AC7F814E0C7F88F
S214401E8010E080F29D80B3F5007F80F06181DB0832
S214401E9003F1010C99107A6857F83C80C4F8088022
S214401EA001238B4007EBCC0113430839E1607B608C
S214401EB047F83C40C8F80C408210012494409C42AD
S214401EC000F28B801C4206D120F0030064001C42C6
S214401ED000F10400FAD007EBC009CC468046DCF897
S214401EE00C309C4507D16DE1002A80F27B81DB688F
S214401EF09C4500F06781596821F003018A1B0F2A30
S214401F00F2DDD3F80CC0D3F8088000939C1928461D
S214401F1046F0010642F001055E60C8F80CC0CCF8F9
S214401F2008807C613C61C4F80CE0C4F808E0656059
S214401F305A5000F061FB009B03F108041EE0102994
S214401F4020D800F053FB102618230220794F3B443C
S214401F50A3F108025C68944200F03D816368E16842
S214401F60A66823F00303234428465A68F16042F0EB
S214401F7001028E605A6000F03FFB0834204603B0F2
S214401F80BDE8F08F00240C2320462B6003B0BDE84C
S214401F90F08F40204FF400734FF03F0E4AE7234443
S214401FA0E1685A68A66842F00102F16028468E60F1
S214401FB05A6000F021FB0834204603B0BDE8F08F9D
S214401FC0234428465A6842F001025A6000F014FB47
S214401FD00834204603B0BDE8F08FBC68636823F041
S214401FE00308B04504D3A8EB06030F2B00F3858007
S214401FF0DFF85891504BD9F800201B680132334423
S21440200004EB080A00F0558103F580530F3323F4A0
S2144020107F6B2BF00F0B5946284600F02DFD411CD8
S214402020024600F0FC80824500F2F780434B196878
S2144020305944196000F04D81D9F8000001301BBFAB
S214402040A2EB0A0A5144C9F80020196012F00701B1
S21440205000F01581C1F10800C1F5805102440831F5
S21440206002EB0B09C9F30B09A1EB090949462846BF
S2144020700193009200F000FD431C9DE80C0000F028
S2144020804381801A484440F001001968BA604944C8
S214402090BC425060196017D0B8F10F0F40F2FB8079
S2144020A06068A8F10C0222F0070204EB020E00F072
S2144020B001004FF0050C10430F2A6060CEF804C0B4
S2144020C0CEF808C000F217811D4BBC681A689142D2
S2144020D088BF19601B4B1A689142626888BF1960B6
S2144020E022F003029642A2EB060301D80F2B04DC33
S2144020F0284600F081FA002440E7A21943F0010385
S21440210046F0010666602846BA60536000F074FAEE
S2144021100834204603B0BDE8F08F142B71D9542BF9
S21440212000F2A380330B03F16F0003F16E0EC30081
S21440213080E600BF3C04402018094020E8084020C4
S2144021401009402014094020440440204408402000
S2144021505A0A042A5BD9142A00F2AE8002F15C01C6
S214402160C9005B3207EB010C7958ACF1080C8C4582
S21440217000F088804A6822F00302934273D289684E
S2144021808C45F7D1DCF80C207B68E260C4F808C0C8
S2144021909460CCF80C408FE6A11946F0010C42F052
S2144021A00106C4F804C0284679613961C1F80CE0DC
S2144021B0C1F808E04E60E25000F01EFA0834DDE652
S2144021C07B6879E608F1010818F0030F0CF1080C5B
S2144021D07FF485AE2DE0DC68A34208BF02303FF4B2
S2144021E03EAEBBE619441C464A68DB6854F8086FA6
S2144021F042F001024A602846F3609E6000F0FCF917
S214402200BCE603F15C0003F15B0EC30012E69A09DC
S21440221002F13901C9003832A4E7BC4254D0BC6848
S214402220626822F003025DE759F80839994540F0A4
S214402230868010F0030F00F1FF30F5D17B6823EA6B
S21440224004037B6064009C423FF6C7AE002C3FF41C
S214402250C4AE1C4240467FF43EAE64001C4200F1D1
S2144022600400FAD037E68C468CE7B3F5AA7F15D83B
S214402270F30B03F1780003F1770EC300DAE54FF471
S2144022808051EDE67B689210012101FA02F2134379
S2144022907B60624679E70123536029E740F2545257
S2144022A0934222D8B30C03F17D0003F17C0EC300A9
S2144022B0C0E503F1100BAEE6542A29D81A0B02F1FA
S2144022C06F01C9006E324DE7204B196859441960BA
S2144022D0B2E6CAF30B0000287FF4AEAE08EB0B0361
S2144022E0BA6843F001035360EEE67F204FF47E73F6
S2144022F04FF07E0E9EE504F1080128460093FFF756
S21440230049FA009B1968DFE601204FF00009BCE659
S214402310B2F5AA7F05D8DA0B02F17801C900773208
S21440232020E740F254518A4205D89A0C02F17D01CA
S214402330C9007C3216E74FF47E717E2212E77B6836
S21440234080E7F00806F1080300E600BFE8084020F2
S21440235001F0FF01102A2BDB10F0070F08D010F811
S214402360013B013A8B422DD010F0070F42B3F6D115
S214402370F0B441EA012141EA014122F007047FF02E
S21440238000070023F0E80256083C85EA010586EA85
S214402390010685FA47F5A3FA87F586FA47F6A5FAC1
S2144023A087F68EB9EED1F0BC01F0FF0102F00702CD
S2144023B032B110F8013B013A83EA010313B1F8D178
S2144023C00020704701387047002D06BF3546033859
S2144023D0073815F0010F07D1013015F4807F02BF92
S2144023E0013015F4C03F0130F0BC0138704700BFE3
S2144023F0844641EA000313F003036DD1403A41D3CB
S21440240051F8043B40F8043B51F8043B40F8043B89
S21440241051F8043B40F8043B51F8043B40F8043B79
S21440242051F8043B40F8043B51F8043B40F8043B69
S21440243051F8043B40F8043B51F8043B40F8043B59
S21440244051F8043B40F8043B51F8043B40F8043B49
S21440245051F8043B40F8043B51F8043B40F8043B39
S21440246051F8043B40F8043B51F8043B40F8043B29
S21440247051F8043B40F8043B51F8043B40F8043B19
S214402480403ABDD2303211D351F8043B40F8043BB9
S21440249051F8043B40F8043B51F8043B40F8043BF9
S2144024A051F8043B40F8043B103AEDD20C3205D3C9
S2144024B051F8043B40F8043B043AF9D2043208D0C1
S2144024C0D2071CBF11F8013B00F8013B01D30B8833
S2144024D003806046704700BF082A13D38B078DD011
S2144024E010F003038AD0C3F10403D21ADB071CBFE3
S2144024F011F8013B00F8013B80D331F8023B20F84D
S214402500023B7BE7043AD9D3013A11F8013B00F885
S214402510013BF9D20B7803704B7843708B7883700D
S214402520604670478842F0B50DD98B1898420AD25B
S2144025308418002A51D0224613F8014D02F8014D66
S2144025409942F9D1F0BD0F2A48D941EA00039B07CA
S21440255046D100F1100401F11003154653F8106CF3
S21440256044F8106C53F80C6C44F80C6C53F8086C38
S21440257044F8086C103D53F8046C44F8046C0F2D76
S21440258003F1100304F11004E8D8A2F1100323F07D
S2144025900F0302F00F0E1033BEF1030F194403442D
S2144025A021D91E1F0D467446043C55F8047B46F858
S2144025B0047F032CF8D8AEF1040424F0030404345A
S2144025C02144234402F0030262B1013B0A4411F85D
S2144025D0014B03F8014F8A42F9D1F0BD0346F3E7B9
S2144025E00346F2E7F0BD7246EEE700BF0148FEF74D
S2144025F011BD00BF0C1140200148FEF70DBD00BFC5
S2144026000C114020002900F095802DE9F04F0D4632
S214402610164683B0804606F10B07FFF7E7FF55F8EE
S21440262004EC162F2EF00304A5F108093CD810221E
S2144026301746BE423DD8944243DAC44B996809EBEC
S2144026400400884200F0B480436823F0010101444E
S2144026504968C9074CD51EF0010F00F09B803146F3
S2144026604046FFF7C5FB064600283AD055F8043CDE
S21440267023F001034B44A0F108029A4200F0218166
S214402680221F242A00F20781132A00F2DB80034629
S2144026902A46116819605168596092689A602946BE
S2144026A04046FFF777F81CE027F00707002F3A462A
S2144026B0BFDA00260C233046C8F8003003B0BDE829
S2144026C0F08F2E46E31B0F2B1ED8D9F8043003F0AC
S2144026D0010323434C44C9F80430636843F00103C4
S2144026E063604046FFF788FF304603B0BDE8F08F92
S2144026F023F00303E11891421FDBC36882682E462D
S214402700D3600C469A60DDE7D9F8042009EB070150
S21440271002F001024C4443F001031743C9F8047029
S2144027204B60636843F00103083163604046FFF73F
S21440273031F8D6E71146FFF75BBB1EF0010F8ED18E
S21440274055F8081CA9EB010ADAF8041021F0030139
S2144027500B442344934225DBC26881685646CA60D0
S2144027609160DAF80C1056F8080F221F242AC16030
S214402770886000F29480132A6FD92968CAF8081036
S2144027806968CAF80C101B2A00F2A28008350AF1C4
S214402790100263E055F8083CA9EB030ADAF8041087
S2144027A021F0030163189342FFF659AF5646D8E727
S2144027B0416821F0030BA34407F11000834556DA25
S2144027C01EF0010F7FF44BAF55F8081CA9EB010A29
S2144027D0DAF8041021F003018B445845E2DC5646F3
S2144027E0DAF80C1056F8080F221F242AC1608860B9
S2144027F000F28F80132A40F28A802968CAF80810AF
S2144028006968CAF80C101B2A00F28A8008350AF15B
S21440281010022968116069685160A96891600AEBE6
S2144028200701ABEB070242F0010299604A60DAF812
S214402830043003F001031F434046CAF80470FFF714
S214402840DBFE51E72B6803606B6843601B2A2DD87C
S21440285000F1080305F108021BE7324629681160BB
S21440286069685160A96891601C46D1462AE709EB21
S2144028700701ABEB070B4BF0010299604A6055F835
S214402880043C03F001031F43404645F8047CFFF731
S214402890B3FE2E4628E72946FFF744FEFFE62946C4
S2144028A030461C46D146FFF73DFE0BE7AB688360DB
S2144028B0EB68C360242A17D000F1100305F110021C
S2144028C0E7E650F8043C23F003031C442E46F9E6A2
S2144028D0A968CAF81010E968CAF81410242A0CD05F
S2144028E010350AF11802B9E72B6903616B69436139
S2144028F005F1180200F11803CBE62A69CAF8182039
S2144029006A69CAF81C2018350AF12002A6E7324642
S2144029107FE7294630460193FFF704FE019B7EE79A
S214402920A968CAF81010E968CAF81410242A03D017
S21440293010350AF118026CE72A69CAF818206A6945
S214402940CAF81C2018350AF1200262E73C044020F1
S214402950838903F00903092B01D000207047FEF756
S21440296037BE00BFF8B50C46054610B1836B002B4A
S21440297045D0B4F90C309AB2970407D4626E43F44B
S214402980005322F400526266A3819AB20021960652
S214402990616031D4500722D5216B61B104F1400308
S2144029A0994202D02846FEF7F5FEE36B63600020AE
S2144029B02063002B3FD12369002B4CD0B4F90C7018
S2144029C0BEB2B3071ED12269226028466369256AD3
S2144029D0E169A8470028606009DD0020F8BDD106FF
S2144029E03ED512072AD443F00403A381E3E7A38924
S2144029F019D143F02003A3814FF0FF30F8BDFEF716
S214402A0027FEB6E71A4B1B4918680123A38106F038
S214402A100906FFF71DF9092EA781D4D1214628467D
S214402A20FEF70CFDCFE7002243F04003A38162602F
S214402A304FF0FF30F8BDA36B2360F8BD2146284613
S214402A40FEF79CFD0028D7D1B4F90C30A060A061F9
S214402A5023F00803C7E721462846FFF777F9ADE796
S214402A6043F0400309222A604FF0FF30A381F8BDAF
S214402A704C2F40005129400038B5074C00230546EE
S214402A8008462360FEF708F8431C00D038BD23688C
S214402A90002BFBD02B6038BD2011402010B50C46D3
S214402AA0B1F90E1000F0CAF9002803DB236D034489
S214402AB0236510BDA38923F48053A38110BD00BFB6
S214402AC02DE9F0411646B1F90C201F46D3050C46B9
S214402AD0054607D500220223B1F90E1000F098F9FA
S214402AE0B4F90C20B4F90E1022F48052A2813B4671
S214402AF032462846BDE8F04100F014B810B50C4602
S214402B00B1F90E1000F084F9A389421C0EBF23F4DD
S214402B10805343F480532065A38110BDB1F90E1055
S214402B2000F0DCB870B50D46084C114606461A460D
S214402B30284600232360FDF7A5FB431C00D070BD4C
S214402B402368002BFBD0336070BD00BF20114020AF
S214402B5038B5304B1B6805460C4613B19A6B002AB5
S214402B6038D0B4F90C2093B218070CD52069A8B118
S214402B7013F001021ED0636900225B42A361A2608B
S214402B80F0B1002038BDD9063CD5580726D4206978
S214402B9042F00803A3819BB20028E9D103F42072D7
S214402BA0B2F5007FE4D028462146FFF7CFF8A38948
S214402BB02069DDE7990758BF6269A2600028E0D126
S214402BC0B4F90C301A06DDD543F04003A3814FF02C
S214402BD0FF3038BD1846FEF73BFDC2E7216B51B1CA
S214402BE004F14003994204D02846FEF7D3FDB4F9D9
S214402BF00C200023236300232069636022F0240214
S214402C002060C5E742F0400209232B604FF0FF30BA
S214402C10A28138BD0C0040202DE9F8432C4D0646D5
S214402C20286898460F469146FEF7F4F9294B1C68EB
S214402C30D4F84831002B3ED05A681F2A1CDC02F1DB
S214402C40010E76B103EB82010124C1F88890D3F8D7
S214402C50880194402043022EC3F88801C1F80881B9
S214402C6023D00232C3F804E0286843F82270FEF707
S214402C70D3F90020BDE8F883174B0BB34FF4C87068
S214402C80FFF7AEF80346D8B1D4F8482102600021D9
S214402C9041600A46C4F848014FF0010EC0F888115A
S214402CA0C0F88C11002EDCD0CCE7D3F88C110C4346
S214402CB0C3F88C41D5E704F5A673C4F84831BBE7A2
S214402CC02868FEF7A9F94FF0FF30BDE8F88300BF4B
S214402CD0380440204C2F4000E11D400038B5074CDA
S214402CE00023054608462360FDF7F2FE431C00D04D
S214402CF038BD2368002BFBD02B6038BD2011402008
S214402D0070B559B105460C4610B1836B002B3CD0CC
S214402D10636ED80705D5B4F90C302BB9002630467B
S214402D2070BDA38999053CD521462846FEF786FB0B
S214402D30E36A064633B1E169284698470028B8BF9B
S214402D404FF0FF36A3891A0622D4216B41B104F115
S214402D504003994202D02846FEF71CFD0023236319
S214402D60616C21B12846FEF715FD00236364FEF72B
S214402D709BFC636E0022DB07A2810ED5A06DFEF79A
S214402D8047F9FEF797FC304670BDFEF761FCBFE79B
S214402D9021692846FEF7FEFCD7E7A06DFEF73CF912
S214402DA0ECE7A06DFEF736F9B4F90C30002BBBD13A
S214402DB0666E16F00106B1D1A06DFEF72DF93046CD
S214402DC070BD00BF38B50B46074C05461146184641
S214402DD000232360FDF77FFE431C00D038BD2368E8
S214402DE0002BFBD02B6038BD2011402038B5074C57
S214402DF00023054608462360FDF772FE431C00D0BC
S214402E0038BD2368002BFBD02B6038BD20114020F6
S214402E1070B50D46084C114606461A46284600230D
S214402E202360FDF75FFE431C00D070BD2368002B77
S214402E30FBD0336070BD00BF2011402070B50D46FA
S214402E40084C114606461A46284600232360FDF7DE
S214402E50FBF9431C00D070BD2368002BFBD03360C9
S214402E6070BD00BF2011402080250000C00000003B
S214402E700008000000000000000000000000000005
S214402E802D2D205553415254205253343835204529
S214402E9078616D706C65202D2D0D0A2D2D205341C7
S214402EA04D4537302D58504C44202D2D0D0A2D2D94
S214402EB020436F6D70696C65643A204D61792033AC
S214402EC03120323031392031353A30393A323320B8
S214402ED02D2D0D0041544D454C53414D4537302026
S214402EE0426C7565746F6F7468200A2057696C6C05
S214402EF0207072696E7420537472696E67206F6EAC
S214402F006C792069662069742069732067726561F0
S214402F10746572207468616E20340000456E746576
S214402F20722074686520737472696E6720796F7555
S214402F30207769736820746F20646973706C617958
S214402F400000000053454420424F590010004020E6
S214402F500A000000F8B500BFF8BC08BC9E467047A3
S214402F601D1440008D014000F8B500BFF8BC08BCF9
S20C402F709E46704769014000CF
S214402F780100000000093D002C09402010004020B8
S214402F8800000000FC02402064034020CC034020A0
S214402F9800000000000000000000000000000000E4
S214402FA800000000000000000000000000000000D4
S214402FB800000000000000000000000000000000C4
S214402FC800000000000000000000000000000000B4
S214402FD800000000000000000000000000000000A4
S214402FE80000000000000000000000000000000094
S214402FF80000000000000000000000000000000084
S2144030080000000000000000000000000000000073
S2144030180000000000000000000000000000000063
S2144030280000000000000000010000000000000052
S2144030380E33CDAB34126DE6ECDE05000B00000017
S2144030480000000000000000000000000000000033
S2144030580000000000000000000000000000000023
S2144030680000000000000000000000000000000013
S2144030780000000000000000000000000000000003
S2144033A80000000000000000FC1040200000000064
S2144033B8000000003C0440203C04402044044020D8
S2144033C8440440204C0440204C04402054044020F0
S2144033D8540440205C0440205C04402064044020A0
S2144033E8640440206C0440206C0440207404402050
S2144033F8740440207C0440207C0440208404402000
S214403408840440208C0440208C04402094044020AF
S214403418940440209C0440209C044020A40440205F
S214403428A4044020AC044020AC044020B40440200F
S214403438B4044020BC044020BC044020C4044020BF
S214403448C4044020CC044020CC044020D40440206F
S214403458D4044020DC044020DC044020E40440201F
S214403468E4044020EC044020EC044020F4044020CF
S214403478F4044020FC044020FC044020040540207E
S214403488040540200C0540200C054020140540202B
S214403498140540201C0540201C05402024054020DB
S2144034A8240540202C0540202C054020340540208B
S2144034B8340540203C0540203C054020440540203B
S2144034C8440540204C0540204C05402054054020EB
S2144034D8540540205C0540205C054020640540209B
S2144034E8640540206C0540206C054020740540204B
S2144034F8740540207C0540207C05402084054020FB
S214403508840540208C0540208C05402094054020AA
S214403518940540209C0540209C054020A40540205A
S214403528A4054020AC054020AC054020B40540200A
S214403538B4054020BC054020BC054020C4054020BA
S214403548C4054020CC054020CC054020D40540206A
S214403558D4054020DC054020DC054020E40540201A
S214403568E4054020EC054020EC054020F4054020CA
S214403578F4054020FC054020FC0540200406402079
S214403588040640200C0640200C0640201406402026
S214403598140640201C0640201C06402024064020D6
S2144035A8240640202C0640202C0640203406402086
S2144035B8340640203C0640203C0640204406402036
S2144035C8440640204C0640204C06402054064020E6
S2144035D8540640205C0640205C0640206406402096
S2144035E8640640206C0640206C0640207406402046
S2144035F8740640207C0640207C06402084064020F6
S214403608840640208C0640208C06402094064020A5
S214403618940640209C0640209C064020A406402055
S214403628A4064020AC064020AC064020B406402005
S214403638B4064020BC064020BC064020C4064020B5
S214403648C4064020CC064020CC064020D406402065
S214403658D4064020DC064020DC064020E406402015
S214403668E4064020EC064020EC064020F4064020C5
S214403678F4064020FC064020FC0640200407402074
S214403688040740200C0740200C0740201407402021
S214403698140740201C0740201C07402024074020D1
S2144036A8240740202C0740202C0740203407402081
S2144036B8340740203C0740203C0740204407402031
S2144036C8440740204C0740204C07402054074020E1
S2144036D8540740205C0740205C0740206407402091
S2144036E8640740206C0740206C0740207407402041
S2144036F8740740207C0740207C07402084074020F1
S214403708840740208C0740208C07402094074020A0
S214403718940740209C0740209C074020A407402050
S214403728A4074020AC074020AC074020B407402000
S214403738B4074020BC074020BC074020C4074020B0
S214403748C4074020CC074020CC074020D407402060
S214403758D4074020DC074020DC074020E407402010
S214403768E4074020EC074020EC074020F4074020C0
S214403778F4074020FC074020FC074020040840206F
S214403788040840200C0840200C084020140840201C
S214403798140840201C0840201C08402024084020CC
S2144037A8240840202C0840202C084020340840207C
S2104037B834084020FFFFFFFF0000020026
S8044008397A
